{
  "contractName": "TestTokenFactory",
  "abi": [
    {
      "constant": true,
      "inputs": [
        {
          "name": "",
          "type": "bytes32"
        }
      ],
      "name": "createdTokens",
      "outputs": [
        {
          "name": "",
          "type": "address"
        }
      ],
      "payable": false,
      "stateMutability": "view",
      "type": "function"
    },
    {
      "anonymous": false,
      "inputs": [
        {
          "indexed": false,
          "name": "symbol",
          "type": "string"
        },
        {
          "indexed": false,
          "name": "addr",
          "type": "address"
        }
      ],
      "name": "CreatedToken",
      "type": "event"
    },
    {
      "constant": false,
      "inputs": [
        {
          "name": "name",
          "type": "string"
        },
        {
          "name": "symbol",
          "type": "string"
        },
        {
          "name": "decimals",
          "type": "uint8"
        }
      ],
      "name": "newToken",
      "outputs": [
        {
          "name": "",
          "type": "address"
        }
      ],
      "payable": false,
      "stateMutability": "nonpayable",
      "type": "function"
    },
    {
      "constant": true,
      "inputs": [
        {
          "name": "symbol",
          "type": "string"
        }
      ],
      "name": "getToken",
      "outputs": [
        {
          "name": "",
          "type": "address"
        }
      ],
      "payable": false,
      "stateMutability": "view",
      "type": "function"
    }
  ],
  "bytecode": "0x608060405234801561001057600080fd5b50611435806100206000396000f3006080604052600436106100565763ffffffff7c01000000000000000000000000000000000000000000000000000000006000350416639e5a182f811461005b578063c1733f681461009c578063c5d86239146100f5575b600080fd5b34801561006757600080fd5b50610073600435610191565b6040805173ffffffffffffffffffffffffffffffffffffffff9092168252519081900360200190f35b3480156100a857600080fd5b506040805160206004803580820135601f81018490048402850184019095528484526100739436949293602493928401919081908401838280828437509497506101b99650505050505050565b34801561010157600080fd5b506040805160206004803580820135601f810184900484028501840190955284845261007394369492936024939284019190819084018382808284375050604080516020601f89358b018035918201839004830284018301909452808352979a9998810197919650918201945092508291508401838280828437509497505050923560ff1693506102ab92505050565b60006020819052908152604090205473ffffffffffffffffffffffffffffffffffffffff1681565b6000806000836040516020018082805190602001908083835b602083106101f15780518252601f1990920191602091820191016101d2565b6001836020036101000a0380198251168184511680821785525050505050509050019150506040516020818303038152906040526040518082805190602001908083835b602083106102545780518252601f199092019160209182019101610235565b51815160209384036101000a600019018019909216911617905260408051929094018290039091208652850195909552929092016000205473ffffffffffffffffffffffffffffffffffffffff1695945050505050565b6000806000846040516020018082805190602001908083835b602083106102e35780518252601f1990920191602091820191016102c4565b6001836020036101000a0380198251168184511680821785525050505050509050019150506040516020818303038152906040526040518082805190602001908083835b602083106103465780518252601f199092019160209182019101610327565b51815160209384036101000a60001901801990921691161790526040805192909401829003909120600081815291829052929020549195505073ffffffffffffffffffffffffffffffffffffffff161591506103a3905057600080fd5b8585856103ae61061d565b60ff82166040820152606080825284519082015283518190602080830191608084019188019080838360005b838110156103f25781810151838201526020016103da565b50505050905090810190601f16801561041f5780820380516001836020036101000a031916815260200191505b50838103825285518152855160209182019187019080838360005b8381101561045257818101518382015260200161043a565b50505050905090810190601f16801561047f5780820380516001836020036101000a031916815260200191505b5095505050505050604051809103906000f0801580156104a3573d6000803e3d6000fd5b50604080517ff2fde38b000000000000000000000000000000000000000000000000000000008152336004820152905191925073ffffffffffffffffffffffffffffffffffffffff83169163f2fde38b9160248082019260009290919082900301818387803b15801561051557600080fd5b505af1158015610529573d6000803e3d6000fd5b505050600083815260208181526040808320805473ffffffffffffffffffffffffffffffffffffffff191673ffffffffffffffffffffffffffffffffffffffff871690811790915581518084019190915281815289519181019190915288517fab1eb4aedcfdb4dcabfa3ff3395e17f86610a844e949c74328de410f49d1663d94508993869383926060840192918701918190849084905b838110156105d95781810151838201526020016105c1565b50505050905090810190601f1680156106065780820380516001836020036101000a031916815260200191505b50935050505060405180910390a195945050505050565b604051610ddc8061062e83390190560060806040526003805460a060020a60ff021916905534801561002057600080fd5b50604051610ddc380380610ddc83398101604090815281516020808401519284015160038054600160a060020a03191633179055918401805190949390930192849184918491610075916004918601906100a9565b5081516100899060059060208501906100a9565b506006805460ff191660ff92909216919091179055506101449350505050565b828054600181600116156101000203166002900490600052602060002090601f016020900481019282601f106100ea57805160ff1916838001178555610117565b82800160010185558215610117579182015b828111156101175782518255916020019190600101906100fc565b50610123929150610127565b5090565b61014191905b80821115610123576000815560010161012d565b90565b610c89806101536000396000f3006080604052600436106100f05763ffffffff7c010000000000000000000000000000000000000000000000000000000060003504166305d2035b81146100f557806306fdde031461011e578063095ea7b3146101a857806318160ddd146101cc57806323b872dd146101f3578063313ce5671461021d57806340c10f1914610248578063661884631461026c57806370a0823114610290578063715018a6146102b15780637d64bcb4146102c85780638da5cb5b146102dd57806395d89b411461030e578063a9059cbb14610323578063d73dd62314610347578063dd62ed3e1461036b578063f2fde38b14610392575b600080fd5b34801561010157600080fd5b5061010a6103b3565b604080519115158252519081900360200190f35b34801561012a57600080fd5b506101336103d4565b6040805160208082528351818301528351919283929083019185019080838360005b8381101561016d578181015183820152602001610155565b50505050905090810190601f16801561019a5780820380516001836020036101000a031916815260200191505b509250505060405180910390f35b3480156101b457600080fd5b5061010a600160a060020a0360043516602435610462565b3480156101d857600080fd5b506101e16104c8565b60408051918252519081900360200190f35b3480156101ff57600080fd5b5061010a600160a060020a03600435811690602435166044356104ce565b34801561022957600080fd5b50610232610645565b6040805160ff9092168252519081900360200190f35b34801561025457600080fd5b5061010a600160a060020a036004351660243561064e565b34801561027857600080fd5b5061010a600160a060020a0360043516602435610769565b34801561029c57600080fd5b506101e1600160a060020a0360043516610859565b3480156102bd57600080fd5b506102c6610874565b005b3480156102d457600080fd5b5061010a6108e2565b3480156102e957600080fd5b506102f2610988565b60408051600160a060020a039092168252519081900360200190f35b34801561031a57600080fd5b50610133610997565b34801561032f57600080fd5b5061010a600160a060020a03600435166024356109f2565b34801561035357600080fd5b5061010a600160a060020a0360043516602435610ad3565b34801561037757600080fd5b506101e1600160a060020a0360043581169060243516610b6c565b34801561039e57600080fd5b506102c6600160a060020a0360043516610b97565b60035474010000000000000000000000000000000000000000900460ff1681565b6004805460408051602060026001851615610100026000190190941693909304601f8101849004840282018401909252818152929183018282801561045a5780601f1061042f5761010080835404028352916020019161045a565b820191906000526020600020905b81548152906001019060200180831161043d57829003601f168201915b505050505081565b336000818152600260209081526040808320600160a060020a038716808552908352818420869055815186815291519394909390927f8c5be1e5ebec7d5bd14f71427d1e84f3dd0314c0f7b2291e5b200ac8c7c3b925928290030190a350600192915050565b60015490565b6000600160a060020a03831615156104e557600080fd5b600160a060020a03841660009081526020819052604090205482111561050a57600080fd5b600160a060020a038416600090815260026020908152604080832033845290915290205482111561053a57600080fd5b600160a060020a038416600090815260208190526040902054610563908363ffffffff610bba16565b600160a060020a038086166000908152602081905260408082209390935590851681522054610598908363ffffffff610bcc16565b600160a060020a038085166000908152602081815260408083209490945591871681526002825282812033825290915220546105da908363ffffffff610bba16565b600160a060020a03808616600081815260026020908152604080832033845282529182902094909455805186815290519287169391927fddf252ad1be2c89b69c2b068fc378daa952ba7f163c4a11628f55a4df523b3ef929181900390910190a35060019392505050565b60065460ff1681565b600354600090600160a060020a0316331461066857600080fd5b60035474010000000000000000000000000000000000000000900460ff161561069057600080fd5b6001546106a3908363ffffffff610bcc16565b600155600160a060020a0383166000908152602081905260409020546106cf908363ffffffff610bcc16565b600160a060020a03841660008181526020818152604091829020939093558051858152905191927f0f6798a560793a54c3bcfe86a93cde1e73087d944c0ea20544137d412139688592918290030190a2604080518381529051600160a060020a038516916000917fddf252ad1be2c89b69c2b068fc378daa952ba7f163c4a11628f55a4df523b3ef9181900360200190a350600192915050565b336000908152600260209081526040808320600160a060020a0386168452909152812054808311156107be57336000908152600260209081526040808320600160a060020a03881684529091528120556107f3565b6107ce818463ffffffff610bba16565b336000908152600260209081526040808320600160a060020a03891684529091529020555b336000818152600260209081526040808320600160a060020a0389168085529083529281902054815190815290519293927f8c5be1e5ebec7d5bd14f71427d1e84f3dd0314c0f7b2291e5b200ac8c7c3b925929181900390910190a35060019392505050565b600160a060020a031660009081526020819052604090205490565b600354600160a060020a0316331461088b57600080fd5b600354604051600160a060020a03909116907ff8df31144d9c2f0f6b59d69b8b98abd5459d07f2742c4df920b25aae33c6482090600090a26003805473ffffffffffffffffffffffffffffffffffffffff19169055565b600354600090600160a060020a031633146108fc57600080fd5b60035474010000000000000000000000000000000000000000900460ff161561092457600080fd5b6003805474ff00000000000000000000000000000000000000001916740100000000000000000000000000000000000000001790556040517fae5184fba832cb2b1f702aca6117b8d265eaf03ad33eb133f19dde0f5920fa0890600090a150600190565b600354600160a060020a031681565b6005805460408051602060026001851615610100026000190190941693909304601f8101849004840282018401909252818152929183018282801561045a5780601f1061042f5761010080835404028352916020019161045a565b6000600160a060020a0383161515610a0957600080fd5b33600090815260208190526040902054821115610a2557600080fd5b33600090815260208190526040902054610a45908363ffffffff610bba16565b3360009081526020819052604080822092909255600160a060020a03851681522054610a77908363ffffffff610bcc16565b600160a060020a038416600081815260208181526040918290209390935580518581529051919233927fddf252ad1be2c89b69c2b068fc378daa952ba7f163c4a11628f55a4df523b3ef9281900390910190a350600192915050565b336000908152600260209081526040808320600160a060020a0386168452909152812054610b07908363ffffffff610bcc16565b336000818152600260209081526040808320600160a060020a0389168085529083529281902085905580519485525191937f8c5be1e5ebec7d5bd14f71427d1e84f3dd0314c0f7b2291e5b200ac8c7c3b925929081900390910190a350600192915050565b600160a060020a03918216600090815260026020908152604080832093909416825291909152205490565b600354600160a060020a03163314610bae57600080fd5b610bb781610bdf565b50565b600082821115610bc657fe5b50900390565b81810182811015610bd957fe5b92915050565b600160a060020a0381161515610bf457600080fd5b600354604051600160a060020a038084169216907f8be0079c531659141344cd1fd0a4f28419497f9722a3daafe3b4186f6b6457e090600090a36003805473ffffffffffffffffffffffffffffffffffffffff1916600160a060020a03929092169190911790555600a165627a7a7230582019b7f5366d1d8d8c4653359f1fda0d09c848c5cabf73b475ad558f82bdcdb5070029a165627a7a723058205e6524c907acba768bdb58715c306923b0a8dd66bf1553247137fb715a6525420029",
  "source": "pragma solidity ^0.4.24;\r\n\r\nimport \"./TestToken.sol\";\r\n\r\ncontract TestTokenFactory {\r\n  mapping(bytes32 => address) public createdTokens;\r\n\r\n  event CreatedToken(string symbol, address addr);\r\n\r\n  function newToken(string name, string symbol, uint8 decimals) public returns(address) {\r\n    bytes32 symbolHash = keccak256(abi.encodePacked(symbol));\r\n    require(createdTokens[symbolHash] == address(0));\r\n    \r\n    TestToken token = new TestToken(name, symbol, decimals);\r\n    token.transferOwnership(msg.sender);\r\n    createdTokens[symbolHash] = address(token);\r\n    emit CreatedToken(symbol, address(token));\r\n    return address(token);\r\n  }\r\n\r\n  function getToken(string symbol) public view returns(address) {\r\n    return createdTokens[keccak256(abi.encodePacked(symbol))];\r\n  }\r\n}\r\n",
  "sourcePath": "D:\\msi-cn\\Documents\\GitHub\\betoken\\eth\\contracts\\test\\TestTokenFactory.sol",
  "compiler": {
    "name": "solc",
    "version": "0.4.24+commit.e67f0147.Emscripten.clang"
  },
  "schemaVersion": "2.0.1",
  "updatedAt": "2018-07-28T20:35:07.140Z"
}