{
  "contractName": "TestKyberNetwork",
  "abi": [
    {
      "constant": true,
      "inputs": [
        {
          "name": "",
          "type": "address"
        }
      ],
      "name": "priceInDAI",
      "outputs": [
        {
          "name": "",
          "type": "uint256"
        }
      ],
      "payable": false,
      "stateMutability": "view",
      "type": "function"
    },
    {
      "constant": false,
      "inputs": [],
      "name": "renounceOwnership",
      "outputs": [],
      "payable": false,
      "stateMutability": "nonpayable",
      "type": "function"
    },
    {
      "constant": true,
      "inputs": [],
      "name": "owner",
      "outputs": [
        {
          "name": "",
          "type": "address"
        }
      ],
      "payable": false,
      "stateMutability": "view",
      "type": "function"
    },
    {
      "constant": false,
      "inputs": [
        {
          "name": "_newOwner",
          "type": "address"
        }
      ],
      "name": "transferOwnership",
      "outputs": [],
      "payable": false,
      "stateMutability": "nonpayable",
      "type": "function"
    },
    {
      "inputs": [
        {
          "name": "_tokens",
          "type": "address[]"
        },
        {
          "name": "_pricesInDAI",
          "type": "uint256[]"
        }
      ],
      "payable": false,
      "stateMutability": "nonpayable",
      "type": "constructor"
    },
    {
      "anonymous": false,
      "inputs": [
        {
          "indexed": true,
          "name": "previousOwner",
          "type": "address"
        }
      ],
      "name": "OwnershipRenounced",
      "type": "event"
    },
    {
      "anonymous": false,
      "inputs": [
        {
          "indexed": true,
          "name": "previousOwner",
          "type": "address"
        },
        {
          "indexed": true,
          "name": "newOwner",
          "type": "address"
        }
      ],
      "name": "OwnershipTransferred",
      "type": "event"
    },
    {
      "constant": false,
      "inputs": [
        {
          "name": "_token",
          "type": "address"
        },
        {
          "name": "_priceInDAI",
          "type": "uint256"
        }
      ],
      "name": "setTokenPrice",
      "outputs": [],
      "payable": false,
      "stateMutability": "nonpayable",
      "type": "function"
    },
    {
      "constant": false,
      "inputs": [
        {
          "name": "_tokens",
          "type": "address[]"
        },
        {
          "name": "_pricesInDAI",
          "type": "uint256[]"
        }
      ],
      "name": "setAllTokenPrices",
      "outputs": [],
      "payable": false,
      "stateMutability": "nonpayable",
      "type": "function"
    },
    {
      "constant": false,
      "inputs": [
        {
          "name": "src",
          "type": "address"
        },
        {
          "name": "srcAmount",
          "type": "uint256"
        },
        {
          "name": "dest",
          "type": "address"
        },
        {
          "name": "destAddress",
          "type": "address"
        },
        {
          "name": "maxDestAmount",
          "type": "uint256"
        },
        {
          "name": "minConversionRate",
          "type": "uint256"
        },
        {
          "name": "walletId",
          "type": "address"
        }
      ],
      "name": "trade",
      "outputs": [
        {
          "name": "",
          "type": "uint256"
        }
      ],
      "payable": true,
      "stateMutability": "payable",
      "type": "function"
    }
  ],
  "bytecode": "0x608060405234801561001057600080fd5b50604051610861380380610861833981016040528051602082015160008054600160a060020a031916331781559183019201905b82518110156100b957818181518110151561005b57fe5b9060200190602002015160016000858481518110151561007757fe5b6020908102909101810151600160a060020a03168252810191909152604001600020556100b28160016401000000006105e06100c182021704565b9050610044565b5050506100d4565b818101828110156100ce57fe5b92915050565b61077e806100e36000396000f3006080604052600436106100695763ffffffff60e060020a600035041663431f63c9811461006e5780634a46d88b1461009457806355fea01a14610122578063715018a6146101555780638da5cb5b1461016a578063cb3c28c71461019b578063f2fde38b146101cd575b600080fd5b34801561007a57600080fd5b50610092600160a060020a03600435166024356101ee565b005b3480156100a057600080fd5b506040805160206004803580820135838102808601850190965280855261009295369593946024949385019291829185019084908082843750506040805187358901803560208181028481018201909552818452989b9a9989019892975090820195509350839250850190849080828437509497506102219650505050505050565b34801561012e57600080fd5b50610143600160a060020a03600435166102b0565b60408051918252519081900360200190f35b34801561016157600080fd5b506100926102c2565b34801561017657600080fd5b5061017f61032e565b60408051600160a060020a039092168252519081900360200190f35b610143600160a060020a03600435811690602435906044358116906064358116906084359060a4359060c4351661033d565b3480156101d957600080fd5b50610092600160a060020a03600435166105bd565b600054600160a060020a0316331461020557600080fd5b600160a060020a03909116600090815260016020526040902055565b60008054600160a060020a0316331461023957600080fd5b5060005b82518110156102ab57818181518110151561025457fe5b9060200190602002015160016000858481518110151561027057fe5b6020908102909101810151600160a060020a03168252810191909152604001600020556102a481600163ffffffff6105e016565b905061023d565b505050565b60016020526000908152604090205481565b600054600160a060020a031633146102d957600080fd5b60008054604051600160a060020a03909116917ff8df31144d9c2f0f6b59d69b8b98abd5459d07f2742c4df920b25aae33c6482091a26000805473ffffffffffffffffffffffffffffffffffffffff19169055565b600054600160a060020a031681565b6000806103cc61037761034f8b6105f3565b600160a060020a038a1660009081526001602052604090205490600a0a63ffffffff61069716565b6103c06103838a6105f3565b600160a060020a038d16600090815260016020526040902054600a9190910a906103b4908d9063ffffffff61069716565b9063ffffffff61069716565b9063ffffffff6106c016565b9050848111156103db57600080fd5b600160a060020a03891673eeeeeeeeeeeeeeeeeeeeeeeeeeeeeeeeeeeeeeee14156104115734881461040c57600080fd5b6104b6565b604080517f23b872dd000000000000000000000000000000000000000000000000000000008152336004820152306024820152604481018a90529051600160a060020a038b16916323b872dd9160648083019260209291908290030181600087803b15801561047f57600080fd5b505af1158015610493573d6000803e3d6000fd5b505050506040513d60208110156104a957600080fd5b505115156104b657600080fd5b600160a060020a03871673eeeeeeeeeeeeeeeeeeeeeeeeeeeeeeeeeeeeeeee141561051757604051600160a060020a0387169082156108fc029083906000818181858888f19350505050158015610511573d6000803e3d6000fd5b506105b1565b86600160a060020a031663a9059cbb87836040518363ffffffff1660e060020a0281526004018083600160a060020a0316600160a060020a0316815260200182815260200192505050602060405180830381600087803b15801561057a57600080fd5b505af115801561058e573d6000803e3d6000fd5b505050506040513d60208110156105a457600080fd5b505115156105b157600080fd5b98975050505050505050565b600054600160a060020a031633146105d457600080fd5b6105dd816106d5565b50565b818101828110156105ed57fe5b92915050565b6000600160a060020a03821673eeeeeeeeeeeeeeeeeeeeeeeeeeeeeeeeeeeeeeee141561062257506012610692565b81600160a060020a031663313ce5676040518163ffffffff1660e060020a028152600401602060405180830381600087803b15801561066057600080fd5b505af1158015610674573d6000803e3d6000fd5b505050506040513d602081101561068a57600080fd5b505160ff1690505b919050565b60008215156106a8575060006105ed565b508181028183828115156106b857fe5b04146105ed57fe5b600081838115156106cd57fe5b049392505050565b600160a060020a03811615156106ea57600080fd5b60008054604051600160a060020a03808516939216917f8be0079c531659141344cd1fd0a4f28419497f9722a3daafe3b4186f6b6457e091a36000805473ffffffffffffffffffffffffffffffffffffffff1916600160a060020a03929092169190911790555600a165627a7a72305820ebd568e1c768de76523f9c7d0e9ea269ae86ec4c459ee082aa3ffa107eac03320029",
  "source": "pragma solidity ^0.4.24;\r\n\r\nimport \"../KyberNetwork.sol\";\r\nimport \"../Utils.sol\";\r\nimport \"openzeppelin-solidity/contracts/ownership/Ownable.sol\";\r\n\r\ncontract TestKyberNetwork is KyberNetwork, Utils, Ownable {\r\n  mapping(address => uint256) public priceInDAI;\r\n\r\n  constructor(address[] _tokens, uint256[] _pricesInDAI) public {\r\n    for (uint256 i = 0; i < _tokens.length; i = i.add(1)) {\r\n      priceInDAI[_tokens[i]] = _pricesInDAI[i];\r\n    }\r\n  }\r\n\r\n  function setTokenPrice(address _token, uint256 _priceInDAI) public onlyOwner {\r\n    priceInDAI[_token] = _priceInDAI;\r\n  }\r\n\r\n  function setAllTokenPrices(address[] _tokens, uint256[] _pricesInDAI) public onlyOwner {\r\n    for (uint256 i = 0; i < _tokens.length; i = i.add(1)) {\r\n      priceInDAI[_tokens[i]] = _pricesInDAI[i];\r\n    }\r\n  }\r\n\r\n  function trade(\r\n    DetailedERC20 src,\r\n    uint srcAmount,\r\n    DetailedERC20 dest,\r\n    address destAddress,\r\n    uint maxDestAmount,\r\n    uint minConversionRate,\r\n    address walletId\r\n  )\r\n    public\r\n    payable\r\n    returns(uint)\r\n  {\r\n    uint256 destAmount = srcAmount.mul(priceInDAI[address(src)]).mul(10**getDecimals(dest)).div(priceInDAI[address(dest)].mul(10**getDecimals(src)));\r\n    require(destAmount <= maxDestAmount);\r\n\r\n    if (address(src) == address(ETH_TOKEN_ADDRESS)) {\r\n      require(srcAmount == msg.value);\r\n    } else {\r\n      require(src.transferFrom(msg.sender, this, srcAmount));\r\n    }\r\n\r\n    if (address(dest) == address(ETH_TOKEN_ADDRESS)) {\r\n      destAddress.transfer(destAmount);\r\n    } else {\r\n      require(dest.transfer(destAddress, destAmount));\r\n    }\r\n    return destAmount;\r\n  }\r\n}\r\n",
  "sourcePath": "D:\\msi-cn\\Documents\\GitHub\\betoken\\eth\\contracts\\test\\TestKyberNetwork.sol",
  "compiler": {
    "name": "solc",
    "version": "0.4.24+commit.e67f0147.Emscripten.clang"
  },
  "schemaVersion": "2.0.1",
  "updatedAt": "2018-07-08T02:34:51.365Z"
}